:10000000C01A00205DB301009D320000A132000043
:10001000A70B0000000000000000FFFF54000000DC
:1000200004180F00000000000000000000000000A5
:1000300000000000000000000000000000000000C0
:10004000000000000000000000000000100200009E
:0400500000000000AC
:10005400C01A00205DB301009D320000A1320000EF
:10006400A70A0A010002000004180FACC0671002BE
:10007400000000000000000000000000000000007C
:10008400000000000000000000000000000000006C
:100094000000000000000000FFFFFFFFFFFFFFFF64
:1000A400FFFFFFFF006007000000000000000000E9
:1000B400FFFFFFFFFFFFFFFF8000000000000000C4
:1000C400000000000000000000000000000000002C
:1000D4000000000000000000844B0020844B00203E
:1000E400C01A002004B203001012030060110020A3
:0C00F4002C11002000E0070000000000BC
:10020000C01A00205DB301009D320000A132000041
:10021000AD860000A5320000AD3200005BB30100E6
:100220005BB301005BB301005BB301005BB3010092
:10023000B13200005BB301005BB301005BB30100AE
:100240002433000024330000243300002433000052
:1002500024330000894E0000715C0000243300004C
:1002600024330000243300008D4C0000A5BD0000A5
:100270002433000024330000243300002433000022
:100280002433000024330000243300005BB301005A
:1002900024330000E5440000243300002433000030
:1002A00024330000E5450000BD4500002433000074
:1002B0002433000024330000243300002D8D01007E
:1002C000B98C0100B58C0100F5830100298D010076
:1002D000BD8C0100DD8C0100C18C01005BB301000D
:1002E000718D0100243300002433000085350000A7
:1002F0002433000024330000243300005BB30100EA
:100300002433000024330000243300002433000091
:100310002433000024330000243300002433000081
:100320002433000024330000243300002433000071
:040330002433000072
:10033400F8B500BFF8BC08BC9E467047F8B500BFCE
:10034400F8BC08BC9E46704710B5054C237833B9F9
:10035400044B13B1044800E000BF0123237010BD17
:10036400B42400200000000008A8030008B5034BD3
:100374001BB10349034800E000BF08BD00000000B2
:10038400B824002008A80300154B002B08BF134B0A
:100394009D46A3F5803A00218B460F461348144A24
:1003A400121A2FF01BFE0F4B002B00D098470E4B58
:1003B400002B00D098470020002104000D000D48B8
:1003C400002802D00C4800E000BF2FF0C9FD200037
:1003D40029000BF0E5FE2FF0AFFD00BF0000080080
:1003E400C01A00200000000000000000B424002017
:1003F400844B002000000000000000001FB5012312
:100404000022009306210DF10F030EF03BFA20B9F0
:100414009DF80F3023B102F085FF05B05DF804FBB1
:1004240002F081FFF9E7000030B50024144D85B0D7
:100434002C700CF0CBFD022817D100900DF10E03A7
:100444002246032101200EF01DFABDF80E0048B12A
:10045400204602F069FF4FF47A6128461FF0DAFB68
:1004640005B030BD02F05EFFFAE709F041F9054B33
:100474000090054A054901200FF0D4FCF0E700BFC5
:100484009C3A00208B430300101203001512030052
:1004940008B50CF09BFD02280CD10022064B01206C
:1004A4001A7007F053FCBDE80840024603490120D6
:1004B4000FF0B8BC08BD00BF943A00205A120300E4
:1004C40013B5044600900A4B0A4A0B4901200FF069
:1004D400A9FC5CB12246094901200FF0A3FC009459
:1004E400074B084A044901200FF09CFC02B010BDE0
:1004F4002C7D0300101203001512030029120300BF
:100504008B43030055120300FFF778BF09B9FFF7C7
:1005140075BF704770470120704701207047012064
:1005240070477047002070470020704700207047D4
:10053400002070470020704700207047012070475A
:1005440001207047B5207047002070470020704795
:1005540000207047002070477047002070477047A4
:100564000020704770470020704784207047704710
:1005740070477047012070470246024901200FF07E
:1005840051BC00BF7B1203007047002070477047C6
:10059400704770470020704700207047034B1B686A
:1005A4001878012808BF0220704700BF9433002048
:1005B4000020704703460120024AC3E903200022B9
:1005C4001A7070470100FEFF70470020704700203A
:1005D40070470020704700207047002070470020BB
:1005E40070477047B520704700207047002070475F
:1005F40070470020704770477047B52070477047B8
:100604007047002070477047704700000023FF21A7
:10061400084A137082F8783082F8653082F87730AF
:1006240082F8793082F87A1082F87B30024A1360BB
:10063400704700BFD0240020A43A0020F8B50D462E
:100644008C680A6806462849202003F0D6FC6B68AB
:100654007BB92649202003F0D0FC20200BF086F93A
:100664002349202003F0DEFCBDE8F84020200BF0F5
:100674007DB9002EF1D01F4D1F4E204F013C14F8C0
:10068400013F23B91A49202003F0CCFCE5E7752B80
:1006940018D0762B18D0772B18D0732B18D0722B38
:1006A40018D0712B18D0622B18D06E2B18D02A2B8F
:1006B40018D01349134A212B18BF1146202003F0E8
:1006C4009CFCDCE72946F9E73146F7E73946F5E7CC
:1006D4000D49F3E70D49F1E70D49EFE70D49EDE762
:1006E4000D49EBE70D49E9E7717603003613030082
:1006F400D01A0300F4120300E8120300FF120300EF
:10070400401303003D1303000B13030015130300F0
:10071400201303002B130300351303003A130300C3
:10072400F0B50026204A92F87B30184452FA80F043
:1007340090F865C090F8665030461C4BA5EB0C054C
:100744001F78EDB2F4B2A54225D90CEB060313448D
:100754005B7811B10CB92D2B17D0782B1FD0582BE7
:1007640005D108B137240AE0013C012C14D9602BCF
:1007740017D8402BF6D83A2B34BF302400241B1B47
:10078400DBB29F4203D900FB07300136DAE70523C9
:10079400002082F87930F0BD10270020F5E700280A
:1007A400E2D05724EBE700BFD0240020581C0020DF
:1007B400FFF72CBF034B93F8770093F87B30C01AF4
:1007C400C0B27047D02400200021FFF7A9BF000069
:1007D40010B50A4B93F87B20024453FA82F292F844
:1007E400652013445C78A4F12D0359425941FFF765
:1007F40097FF2D2C08BF404210BD00BFD02400201D
:1008040030B50C4A92F87B300344C043DBB2C00FCE
:1008140039B1D51895F8664095F86550641B241ACB
:100824000C7042FA83F393F865301844024B184471
:1008340030BD00BFD0240020D1240020F7B51546D8
:100844000E460DF107011C46FFF7DAFF9DF807304D
:100854000746AB4288BF8DF807501CB19DF807408E
:100864002C1BE4B222463046002100F075FB3019FF
:100874009DF80720394600F013FB9DF8070003B0EC
:10088400F0BD38B50C4601230822FFF7D7FF04F169
:100894000803621E043413F8011D12F8015FA34219
:1008A4001D701170F7D138BD38B5054601460120D9
:1008B400FFF7C4FED5E901436CB91C46084D236813
:1008C40063B12946202003F098FB21460020FFF75E
:1008D400B5FE0C34F3E71B786E2BEFD038BD00BFA8
:1008E400627A030008B50449202003F086FBBDE8C2
:1008F400084020200BF03AB8A812030038B5FFF7DF
:10090400F1FF0024054D61190C34631953F80C3CB4
:1009140003B938BD0020FFF791FEF4E72C3803003B
:100924002DE9F84F1F4B204D53F820201F4920205C
:1009340003F063FB2B681BB9BDE8F84FFFF7DEBF7C
:100944001B4FFFF7CFFF0026B946DFF86CA097F8DE
:100954007B30F4B2013B9C4204DB2868BDE8F84FCD
:10096400FFF7A2BF47FA86F393F8658000234C444F
:10097400C84494F8662094F8651003F1010B521AE8
:10098400DBB2D2B2934205D30A49202003F035FBEF
:100994000136DCE743445A785146202003F02DFB0E
:1009A4005B46E6E75C1C0020A43A0020A312030087
:1009B400D0240020637A0300108003002DE9F74F50
:1009C400884C94F87730002B00F0A180864B671C8C
:1009D4001B7813F0010F1FD00025844E14E0631917
:1009E40093F8662093F865302020D21A44FA85F3F0
:1009F40093F86510D2B239440AF0B3FF314620208F
:100A040003F0FBFA0135EDB294F87730AB42E6D847
:100A14007749202003F0F1FA002694F87730DFF8C4
:100A2400DCE10193734B4FF00008714645461EF814
:100A3400012B91F801C007EB020AACEB020C5FFA40
:100A44008CFC1868002852D00138D14619E02AB924
:100A5400002D4AD04FF001080C33F2E719F8011BBE
:100A6400A1F1410BBBF1190F98BF2031A2F1410B49
:100A740098BFC9B2BBF1190F9CBF2032D2B28A42CF
:100A8400EAD1A9EB0A01614510F8012FDFD1002A50
:100A9400DED11D46584B01361D6094F87B30F6B20A
:100AA400013384F87B30D5E90123002A35D01B7843
:100AB4006E2B31D03F2B23D04FF000094FF0070BA2
:100AC400C846042394F87710AA68B14212F8087053
:100AD4002BD8AFB1904498F801302A2B10D0212F95
:100AE4001CBF032384F879300AE01D46B4E7B8F14B
:100AF400000F01D1002DCDD10223002584F87930D7
:100B040094F87900002869D168680EF0ABF903B055
:100B1400BDE8F04FFFF77ABD1346019AB24282D87E
:100B240003221D4684F87920EAE7732F09D8712F30
:100B34000BD2212F1FD0622F3CD0002F4BD1032288
:100B440046E0A7F17502022A45D8752F29D0762FE1
:100B54002AD0732F2BD0722F47F6FF7A18BF4FF08D
:100B6400FF3A012148460193FFF7DAFD5045019B06
:100B740001D984F87930AA68424452782A2A94F830
:100B840079201CBF08F101085FFA88F8002AB7D160
:100B9400212F1FBF013609F10109F6B25FFA89F965
:100BA40090E74FF0FF0ADCE74FF6FF7AD9E74FF002
:100BB4007F0AD6E794F87B204A4454FA82F292F8EA
:100BC400652022445278222AD5D07B2AD3D005220C
:100BD40084F87920CFE784F879B0CCE7FFF7A0FE5A
:100BE40095E700BFD02400204C250020637A030041
:100BF400E51203002C380300A43A00203525002018
:100C04002DE9F34106460D464FF000085C4C5D4F5C
:100C140066B90DF1070128460AF09EFE78B1262830
:100C240000F0A980012384F879304BE0002D00F016
:100C3400A28016F8013B013D8DF80730EDB23A78F9
:100C44009DF807300D2A3B7001D10A2BE0D00D2B03
:100C54000CD0A3F10A025142514122788846042A59
:100C6400D6D8DFE802F0051D263C31000121F4E767
:100C740021B1FFF7A3FE4FF00108C9E7202B63D091
:100C8400222B07D10223237094F87820642A5DD1A3
:100C94000623C8E77B2B01D10323F4E70123F2E702
:100CA40009B9202BF0D194F87730112B3FD10323CD
:100CB400B9E7222BF7D00029E6D005234FF001082D
:100CC40084F8793004232370B8F1000FA0D094F88D
:100CD400790008B1FFF724FEFFF798FC98E77D2B15
:100CE40094F87A0003D1FF28DDD005239BE7602B1D
:100CF40013D8402B13D8392B8CBF002230229A1AD8
:100D0400D2B20F2A10D8FF280BD0FF2302EB001217
:100D14008DF8072084F87A30B6E75722EFE73722B8
:100D2400EDE784F87A2073E7202BDED170E70133F6
:100D3400DBB294F8782084F87730234483F8652074
:100D440000232370002994D1884661E72378012B7E
:100D540009D19DF80730A3F1410119299CBF203323
:100D6400DBB28DF807309DF80710A31801325970D3
:100D740084F878204CE7404602B0BDE8F08100BF1B
:100D8400D02400204D25002049BA89B24840C0F340
:100D940003114140080380B24840C3B280EA4310C3
:100DA40070471BF0C7BA7047704770477047704769
:100DB4007047704770477047704770477047704777
:100DC4000020704770477047002070477047704795
:100DD40000207047002070477047012070470120B1
:100DE4007047704770477047704770477047704747
:100DF4002DE9F0470024204DDFF89C90DFF89CA0FB
:100E04005FFA84F840461EF0C3FCFF2806460CD166
:100E140022461A49287803F005F9287801340AF0A3
:100E2400A5FD142CECD1BDE8F087154B47B213EAAD
:100E3400270338BF534659F824201249287803F071
:100E4400F1F8002FE9DA14B1B8F1030F08D10E4B11
:100E540016F0010F0D49287818BF194603F0E2F87F
:100E64000A2CDAD10A4B16F0010F0A49287818BF68
:100E7400194603F0D7F8D0E7492000205D14030099
:100E8400D01A030085140300201403003614030051
:100E94004814030052140300CC130300BA7803006F
:100EA4008842F0B54FEA92031AD804460D469BB225
:100EB4009E00871904370434BC4205F104053AD175
:100EC400C3EB8333314402EB8303013E304411FA14
:100ED40083F3994220D011F8012B00F8012FF8E791
:100EE400541E204421440D4604469BB2A0EB8306C5
:100EF400043E043CB442A5F104050ED16FF0030492
:100F04005C43C3EB833302EB830321449BB2013480
:100F14002044CB1A994209D1F0BD2F792771EF787B
:100F2400E770AF78A7706F786770E2E711F801296E
:100F340000F8012DEEE715F804CC04F804CC15F8FC
:100F440003CC04F803CC15F802CC04F802CC15F851
:100F540001CC04F801CCAEE70244904200D17047C2
:100F640000F8011BF9E710B5013801390AB9104638
:100F740006E010F8014F11F8013F9C4201D0E01A3D
:100F840010BD013A92B2F1E782B2074B4AB1000CAC
:100F94001A8008BF4FF6CE22044B14BF18801A8063
:100FA40070474BF6EF62F2E7281D00202A1D00204F
:100FB400094B1888020448BF80F0620042001A807E
:100FC400064A1388190444BF83F4805383F00B0347
:100FD4005900118058407047281D00202A1D002008
:100FE4000022034B1870034B1970034B1A7070479F
:100FF4005425002053250020552500202DE9F04FCD
:10100400234E85B0337807468846002B3DD04FF6F3
:10101400FB73204D98422C7803D952211E4801F0CD
:101024002DFD1E4B4FF0000B9A4632785FFA8BF978
:101034004A45187811D9484402A9C0B2019327F04F
:101044005BF9082241460DEB0200FFF78CFF0BF120
:10105400010B019B0028E8D14C462B78A34207D111
:10106400631C3278DBB29A422B7004BF00232B70CE
:101074009AF8003041461C44E4B2204627F064FA52
:1010840018B93946204627F005F905B0BDE8F08FB8
:1010940053250020552500207A15030054250020EF
:1010A400024B187800F07F00704700BF56250020DF
:1010B400034B18780130C0B2187000F07F007047FD
:1010C400562500201FB5030A8DF80E300323009324
:1010D40003AB8DF80D0000F0BFF905B05DF804FB1B
:1010E4001FB58DF80F100421030A8DF80E300091FE
:1010F40003AB8DF80D0000F0AFF905B05DF804FB0B
:101104002DE9F043994689B0BDF840509DF84460FC
:10111400074688460DF1090011460822BDF84C40E7
:10112400FFF7BEFE8DF81250012E4FEA15258DF8FB
:1011340011908DF813508DF8146017D0032E1CD124
:10114400082212990DF11500FFF7AAFE9DF8503000
:101154008DF81D3016230093BDF8542002AB414690
:10116400384600F079F909B0BDE8F0838DF81540F0
:10117400240A8DF816400F23EDE70120F3E71FB58D
:101184000C46194602238DF80D2000930A4603AB42
:101194000146204600F060F904B010BD70B586B079
:1011A400044616460DF10D0008221D46FFF778FE91
:1011B4000A232A460093342103AB20468DF8156098
:1011C40000F04AF906B070BD30B5002485B0ADF822
:1011D4000A20021D92B2012A1D46ADF80840ADF85E
:1011E4000610ADF8044003D94FF6FF72904207D1C0
:1011F400064A2B46127801A925F0C0F905B030BD86
:10120400014601AA204625F07FFAF7E72C1D0020AD
:101214002DE9F74F9846FF2A16BF474B00241B6859
:101224000E4618BF9C5C814618BF6408B8F1FF0FD6
:1012340016BF414B00271B6815461CBF13F80870E6
:101244007F08FFF735FF4FEA19238DF800008DF86A
:1012540003600621360A68468DF804608DF8019013
:101264008DF802308DF805401FF04AF8FF28064635
:1012740004D11824204603B0BDE8F08F4FEA440B94
:101284000BF1070A0AEB4701C9B21EF0EDFF002873
:10129400EFD10446A3451BD10BF106013A4601F0F8
:1012A400FE0130465FFA8AF41FF097F84FF0000A07
:1012B4005FFA8AF5AF4223D83346BDF830200621C1
:1012C4004846FFF781FF044630461EF0BBFED1E7D7
:1012D400214628461FF07CF8A11D0246C9B23046BB
:1012E4001FF07BF8611CC9B228461FF071F8E11D9C
:1012F4000246C9B2304602341FF06FF8E4B2C9E7BF
:101304006D00EDB2294640461FF062F821460246C0
:1013140030461FF062F8691CC9B240461FF058F805
:10132400611C0246C9B2304602341FF056F80AF175
:10133400010AE4B2BCE700BFC81C00202DE9F0415B
:1013440088B00F4602A906460BF010FF00287CD097
:10135400FFF7AEFE8DF810001EF0EEFB8DF81100C5
:101364001EF0EAFB000A8DF81200082239490DF13B
:101374001300FFF795FDBDF808300F218DF81C30E0
:101384001B0A8DF81D309DF80D3004A88DF81B60E4
:101394008DF81E301EF0B4FFFF28044657D04FF0DE
:1013A40000089DF80D305FFA88F2934208F10108B5
:1013B4001DD801220DF10E0120461EF0E3FF4FF06F
:1013C40000089DF80E305FFA88F2934208F1010894
:1013D40024D823463A4620210020FFF7F5FE05468F
:1013E40020461EF02FFE284608B0BDE8F0810021FB
:1013F40030460BF0E7FE05468DF807000DF10701B6
:10140400012220461EF0BEFF2D0A01220DF1070124
:1014140020468DF807501EF0B5FFC2E70121304683
:101424000BF0D0FE05468DF807000DF107010122EF
:1014340020461EF0A7FF2D0A01220DF107012046C8
:101444008DF807501EF09EFFBBE7A325CBE71825B8
:10145400C9E700BF254A0020F8B51C460E461746CA
:101464000546FFF725FE9DF81810207020461EF053
:1014740047FFFF2804460BD003463A462846314628
:10148400FFF7A2FE054620461EF0DCFD2846F8BD07
:101494001825FBE7828810B5531C04899BB29C4233
:1014A40098BF0023C4889C4217BF04684FF0FF30E4
:1014B400A154838018BF002010BDC288838810B552
:1014C40093420BD00489531C9BB29C4298BF0023C7
:1014D4000468A25C0A70C380002010BD4FF0FF3086
:1014E400FBE78288C088101A18BF012070470023C8
:1014F400016043600281704710B504461F49012012
:101504000EF090FC032C26D003D83CB3012C2ED033
:1015140010BD912C0ED0922C1DD0902CF8D11849CE
:1015240001200EF07FFC0122164B9A711A6000F024
:1015340069FE09E0124901200EF074FC00F062FE1D
:101544000122104B9A711A604FF47A71BDE8104071
:101554000D481EF05FBB0B4B0222F4E7094B9A794E
:10156400002AD5D0032240F6B8311A60EEE70222F1
:10157400BDE81040034B1A6000F044BE461C030053
:10158400621C03001C3B0020D83A002070B50546BD
:101594000024064EAB89A34200D870BDAB68304628
:1015A400195DFFF777FF0134F4E700BFB42700208B
:1015B4000022054B1A805A809A80DA801A815A8157
:1015C4009A81DA811A827047E03A0020F0B5072840
:1015D4009DF81460069D9DF81C70089C38D1012963
:1015E4001CD1D84386F00101514041402846C9B27C
:1015F400A0EB050C67450CD8B12020700620A37021
:1016040001236070E27023712B78A6716371E1711C
:10161400F0BD10F801CB8CEA0101E9E70029F7D10C
:10162400D84386F00201514041402846C9B2A0EB9C
:10163400050C674507D8B12020700620A3706070A0
:10164400E2700223DFE710F801CB8CEA0101EEE738
:10165400F0B9D84386F00101514041402846C9B24F
:10166400A0EB050C67450ED8B120A37020700123B0
:101674000720E270607023712B7863716B78E671D8
:10168400A3712172C4E710F801CB8CEA0101E7E7EA
:1016940001280FD1D84386F001015140414028462A
:1016A400C9B2A0EB050C6745DED910F801CB8CEA72
:1016B4000101F6E702280FD1D84386F00101514019
:1016C40041402846C9B2A0EB050C6745CCD910F8B7
:1016D40001CB8CEA0101F6E703280FD1D84386F049
:1016E4000101514041402846C9B2A0EB050C6745B1
:1016F400BAD910F801CB8CEA0101F6E704280FD11E
:10170400D84386F00101514041402846C9B2A0EBBC
:10171400050C6745A8D910F801CB8CEA0101F6E75E
:1017240005280FD1D84386F0010151404140284695
:10173400C9B2A0EB050C674596D910F801CB8CEA29
:101744000101F6E706287FF463AFD84386F0010170
:10175400514041402846C9B2A0EB050C674583D9E6
:1017640010F801CB8CEA0101F6E701283ED00228EB
:1017740052D0032840D0042848D0052867D0062832
:101784003ED007285DD0082830D101291CD0022979
:101794002AD008205FE002280CD003280CD00428AB
:1017A4000CD005280CD006280CD007280CBF1D200F
:1017B4001E20704718207047192070471A20704760
:1017C4001B2070471C207047092070470720704772
:1017D4000520704703207047082070470620704793
:1017E4000E2070471120704714207047012936D00D
:1017F40002293AD10D207047012932D104207047C3
:101804000129E3D0022926D1122070470129DFD013
:10181400022920D1102070470129DBD00229DFD012
:101824000329B8D00228D5D00328E7D00428CFD084
:101834000528D3D00628C9D007280CBF08200920C2
:1018440070470129C8D0022905D113207047012906
:10185400C4D00229C6D003299DD00128E2D1022098
:1018640070470229DCD10F207047032914BF0220DE
:1018740017207047F0B500240F4616461A4B1B4D2F
:1018840087B01B780246294603A88DF804308DF8EA
:101894000830CDE90344ADF81440ADF80540ADF887
:1018A40009402EF0A3FB9DF80C303A468DF8043025
:1018B4009DF80D3029468DF805309DF80E3001A8AD
:1018C4008DF808309DF80F308DF806408DF80930FA
:1018D4008DF80A402EF0AAFB3246294602A82EF0C3
:1018E400A5FB07B0F0BD00BFB51A0300B480030028
:1018F4001FB50020022204AB03F8040D48F23401A2
:1019040000924FF48A52FFF7A7FD1AF0FBF807493B
:1019140001200EF087FA1EF00FF9802121F05EFA03
:1019240021F09CF905B05DF804FB00BF061C030020
:10193400002208B5084B1A700BF048FB0749024611
:1019440001200EF06FFAFFF7D3FFBDE8084041F223
:10195400883103481EF05EB9FC3A0020B81A03002F
:10196400243B002070B5354901200EF05BFAFFF7E7
:101974001FFE19F0BBFD04F09BF800F05FFD30483A
:1019840000F002FC4FF496722E492F48FFF7AFFD8A
:101994000321002000F0A5FC0021032000F0A1FC9D
:1019A4000121032000F09DFC0221032000F099FC9A
:1019B4000121022000F095FC0221084600F091FC70
:1019C4000321002000F09AFC0021032000F096FC83
:1019D4000121032000F092FC0221032000F08EFC80
:1019E4000121022000F0A0FC02210024084600F09E
:1019F4009BFC164800F026FB15481EF0FFF8154B1B
:101A040015481C70154D164B164E40F6B8311C7017
:101A140004702C7034701EF0FDF8134841F28831C4
:101A240004701EF0F7F8304640F6B8311EF0F2F8B4
:101A34002846BDE870401EF0E1B800BF2E1C03002C
:101A44009115000057250020B4270020FD14000044
:101A5400D83A0020243B0020143B00200C3B0020FB
:101A6400F43A0020FC3A0020043B00201FB500207B
:101A74001E4B18701E4B1A681C46012A0BD0032AF1
:101A84000ED032B90BF0A2FA08B900F01FFB022302
:101A9400236004B010BD02221A6000F0B3FBF8E723
:101AA40002221A6004AB03F8040D48F234010092D8
:101AB4004FF48A52FFF7D0FC0BF088FA04461AF070
:101AC40021F8022C01D0902C0AD10A4901200EF0F1
:101AD400A9F91EF031F8002121F080F921F0BEF8B7
:101AE40041F2883104481EF095F8D2E7D83A002034
:101AF4001C3B0020061C0300F43A002010B50BF038
:101B040065FA0023074C237040B900F0DFFA204641
:101B1400BDE8104041F288311EF07CB8024A1370CF
:101B240010BD00BF243B0020FC3A002008B501F0A2
:101B3400B5FE0022014B1A7008BD00BFF43A002024
:101B44002DE9F047002402250127DFF8E88188B059
:101B540098F8103005AE8DF8103098F811300DF16A
:101B64001009DFF8D4A1746034818DF81130039624
:101B74002B460295CDE900490B22012103208DF863
:101B8400124005948AF80040FFF720FD33462046B2
:101B94000B22092100F088FB98F80E3028468DF8B6
:101BA400103098F80F30CDE902568DF81130CDE998
:101BB40000492B460A220121FFF708FD334620463F
:101BC4000A22082100F070FB98F80C3039468DF891
:101BD400103003962B46CDE9019700941522052079
:101BE400FFF7F4FC33460C2220460A2100F05CFB8C
:101BF40098F80030294638468DF81030FFF7B5FDC7
:101C04002B4602463946CDE90276CDE90049072044
:101C1400FFF7DCFC3A4633463946204600F044FBE5
:101C240098F80130294628468DF81030FFF79DFDBD
:101C34002B4602463946CDE90276CDE90049072014
:101C4400FFF7C4FC2A4633462946204600F02CFB05
:101C540098F80230294603208DF81030FFF785FDEF
:101C64002B4602463946CDE90276CDE900490720E4
:101C7400FFF7ACFC032233461146204600F014FB68
:101C840098F80330294604208DF81030FFF76DFDD5
:101C94002B4602463946CDE90276CDE900490720B4
:101CA400FFF794FC042233461146204600F0FCFA68
:101CB40098F80430294605208DF81030FFF755FDBB
:101CC4002B4602463946CDE90276CDE90049072084
:101CD400FFF77CFC052233461146204600F0E4FA67
:101CE40098F80530294606208DF81030FFF73DFDA1
:101CF4002B4602463946CDE90276CDE90049072054
:101D0400FFF764FC062233461146204600F0CCFA65
:101D14000BF05CF90649024638460EF083F841F2AE
:101D2400883150461DF076FF08B0BDE8F08700BF4B
:101D3400B81A0300E03A0020043B00200123F7B561
:101D44000024284D284E294F2B703046FFF7C9FB3D
:101D540000B114B1204603B0F0BD0DF107013046C7
:101D6400FFF7ABFB2B78022B15D0062B2DD0012BC4
:101D740034D19DF80730B12B06D1FF221C4B3C70A7
:101D84001A7002232B70E0E7062B29D0152B14BF01
:101D940005240424D9E73B78FD2B12D89DF80720AD
:101DA4001449CA542BB1124890F800C082EA0C02BC
:101DB400027001330A78DBB29A423B70C5D1062324
:101DC400E0E7012305242B70BFE7094B9DF807408A
:101DD4001B789C4214BF05240724B6E70123D1E7EE
:101DE4000324B2E72D1D0020B42700208426002000
:101DF400832600208526002038B5574C6378022BB3
:101E04001DD103780A3B0A2B00F2A080DFE803F01F
:101E140006189E2A40505E6D7D8C950023794F4DA7
:101E24006179AB73E9739CB219B104EB840401EBDF
:101E3400440422464A4901200DF0F4FF2C8138BDA8
:101E44002379464D61792B7469749CB219B104EB02
:101E5400840401EB44042246424901200DF0E2FFD0
:101E64006C81ECE7012022793F490DF0DBFF2079FA
:101E74003A4B187020B90321BDE8384000F03EBA4F
:101E84000128DCD103210020BDE8384000F04CBA21
:101E94003649227901200DF0C5FF21792F4B597065
:101EA40009B90320E8E70129C9D100210320EBE7A0
:101EB4002F49227901200DF0B5FF2179274B997024
:101EC40009B90121EDE70129B9D1EFE722792949BF
:101ED40001200DF0A7FF2379204AD3700BB902210A
:101EE400DFE7012BABD10221E0E72349227901206E
:101EF4000DF098FF2179194B197111B901210220B4
:101F0400C2E701299BD10220B6E722791B490120AF
:101F14000DF088FF2379114A53710BB90221EEE7C2
:101F2400012B8CD10221EEE72279154901200DF015
:101F340079FF2279094B9A7181E7227911490120AD
:101F44000DF070FF2279054BDA7178E70E49012014
:101F5400BDE838400DF066BF85260020E03A002039
:101F6400FF1A0300131B0300271B0300411B03007C
:101F74005B1B0300751B03008F1B0300A91B0300DD
:101F8400C31B0300DD1B0300F71B030008B5FFF7A9
:101F9400D5FE30B1072804D1BDE808400148FFF759
:101FA4002BBF08BD87260020002310B5044C2370E6
:101FB400FFF7ECFF2046BDE810401DF01FBE00BF38
:101FC4000C3B0020002337B5164D02A901F8013D52
:101FD4000DF10600144C8DF806302B7000F0B8FAA1
:101FE4009DF807309DF80620104901200DF01AFFD6
:101FF4009DF8060004F10F0204F10E012081FFF7A1
:1020040039FC9DF8070004F1110204F1100160810C
:10201400FFF730FC40F6B83128461DF0FBFD03B055
:1020240030BD00BF143B0020E03A0020D11A030069
:10203400704708B5002107F02FFCBDE808400120D7
:102044001AF056B908B1024B18600248FFF7F1BF05
:10205400C027002000C8180310B504460F4901200A
:102064000DF0E0FE902C0BD10D4A0E4B92881B68AC
:102074001AB163B12046984709E043B19120FAE7C9
:102084000AF0A4FF28B9074B1B68002BF3D10020EA
:1020940010BD0328FBD1034B1B68ECE7461C03006F
:1020A4001C3B0020C0270020002208B5054B1A70F5
:1020B4000AF08CFF28B907F01BFB034A938801330D
:1020C400938008BD343B00201C3B002008B50AF077
:1020D4007DFF30B9BDE808404FF4FA6101481DF0B6
:1020E40099BD08BD343B00200B4611B1012907D02E
:1020F4007047012816BF0120044905490DF092BE1E
:1021040001280EBF034904491846F7E77C1C030065
:102114009E1C0300C01C0300E11C030070B503688F
:1021240004465D790379C67C022B07D10A49012054
:102134000DF078FE31462846FFF7D6FF237953B9D0
:102144002A46064901200DF06DFE31462846BDE8B9
:102154007040FFF7C9BF70BD021D03001C1D0300C2
:1021640010B50446074901200DF05CFEA37B33B192
:1021740023685B88062B02D12046FFF7CFFF00209F
:1021840010BD00BF461D030008B1014B1860704725
:10219400C427002008B5024B1B689847002008BDDF
:1021A400C4270020F0B5174600220646ADF5017D90
:1021B4009DF818528DF80D208DF80E209DF81C22E4
:1021C4008DF80C108DF80F2019462A4603AC04A88C
:1021D40004352DF0F8FECDE90045044B3A4631466E
:1021E40010200CF0B1FD0DF5017DF0BD834203001C
:1021F40010B514460CF02EFE2146BDE81040002018
:102204000CF006BE70B58AB006AC2646244A02F12C
:102214000803254610685168083203C59A422C46C3
:10222400F7D10124106813791E4A28602B711068B5
:10223400137904908DF814308DF80F400AF0C6FE1F
:1022440002282BD10D2342252246CDE90035052154
:1022540033460020FFF7A6FF002221462046FFF761
:10226400C7FF052322460093042104AB00200195F7
:10227400FFF798FF002221462046FFF7B9FF1023FD
:102284002246CDE90043214600200DF10F03FFF75C
:1022940089FF002221462046FFF7AAFF0AB070BD3D
:1022A400691D0300761D0300F7B506460C46154666
:1022B4001F460AF08BFE022811D10A232022052191
:1022C400CDE9003200203B460122FFF76BFF324686
:1022D4002946204603B0BDE8F040FFF789BF03B0AC
:1022E400F0BD38B1012805D0022803D003280CBF63
:1022F400032000200023042204F01EBA38B1012870
:1023040005D0022803D003280CBF0320002001239A
:1023140003FA01F13023584341F2100300F18040E5
:1023240000F57030C150704738B1012805D002283B
:1023340003D003280CBF03200020012303FA01F17A
:102344003023584342F2100300F1804000F570300E
:10235400C150704707B501230022CDE9002311467F
:10236400104604F0A3F903B05DF804FB70B5002433
:10237400284E294D33782C70032B2DD0042B37D0C5
:10238400022B45D1254B1C6814F0010413D02449B9
:1023940001200DF047FD234901200DF043FD224BA0
:1023A4001B680BB10120984741F288311A48BDE8F7
:1023B40070401DF02FBC1D4901200DF033FD032199
:1023C40020463170FFF79AFF2846C8211DF022FCF1
:1023D400BDE87040FFF7BEBF154901200DF022FD96
:1023E40004233370FFF7B6FF47F230512846DEE787
:1023F4000D4D2B6863B10F4901200DF013FD012031
:102404000D490DF00FFD2B682046BDE870401847BC
:1024140070BD00BF443B00203C3B002014C003407F
:102424007B1D0300AC1D0300483B0020BE1D0300C0
:10243400F11D0300261E03005B1E0300042208B5E1
:1024440000231146184604F077F941F210031021D5
:10245400014AD15008BD00BF00C0034038B5042272
:1024640000231146184604F067F942F210031022C3
:10247400094CE25019F02DF8054619F02AF8401BD2
:102484001328FAD941F2100310221E20E250BDE8AD
:10249400384003F079BB00BF00C00340F8B5002307
:1024A400124E01220421184604F046F9002537464D
:1024B400346814F0100408D0642D01D10120F8BD53
:1024C4000120013503F060FBF2E7642DF6D03B6890
:1024D400DA0606D4642CF1D00120013403F054FB55
:1024E400F5E7A4F1640358425841E8E714C00340F7
:1024F40070B50F4E002435463368DA0601D5642CD6
:102504000BD12B68DB0601D4632C0BD9282003F0F4
:102514003BFB2868C0F3001070BD0120013403F0B8
:1025240033FBE9E70120013403F02EFBE9E700BFA8
:1025340014C0034038B5002008254000C4B2FFF79A
:10254400D7FF013D204315F0FF05C0B2F5D138BDDA
:10255400F7B507460E46FFF781FFFFF79FFF0446D6
:10256400D8B90546FFF7E6FF0DF805000135052D3E
:10257400F8D19DF800209DF801309DF802109DF8D7
:10258400030013440B4403449DF80400834201D127
:1025940039703270204603B0F0BD0124FAE70023FD
:1025A40007B5CDE90033012369464FF0FF308DF8BC
:1025B400023011F063FA003018BF012003B05DF857
:1025C40004FB012070470120704701207047000080
:1025D40010B50A4C0A494FF481700DF023FC2368AE
:1025E4001B6858790BF0C1FD23681B685879FDF707
:1025F400BFFF00200FF0B0F8012010BD804800207C
:102604006F1E03002DE9F84F80460D461446994687
:10261400164E06F1010A0DB9BDE8F88F102D4FF0E2
:102624000D02494650462F4628BF1027FEF738FCB6
:102634000123337000230D48F473B37326F01CF8A0
:10264400424601340A495FFA87FBE4B212F8013BBF
:1026540011F8010F434002F8013CA2EB0803DBB27E
:102664005B45F3D3ED1BADB29046D4E7CC270020F5
:10267400CB2700202DE9F04F4FF00209364D85B0ED
:1026840003930F9B174601900D220E460146681CCA
:10269400BDF838800293FEF703FC49234C46AA4652
:1026A4002B7028464FEA1823AB7385F80F8025F06A
:1026B400E3FF2B7883EA17232B706B787B406B70D6
:1026C4004FF0000B21E0C4F1100CA7EB0B031FFA31
:1026D4008CFC9BB2634528BF63463046A11B00EBCC
:1026E400010C5FFA8CF2A0EB060C1FFA8CFC9C45E3
:1026F4001BD31C44E4B29B44102C1E441FFA8BFBD6
:1027040003D1284625F0B8FF0024BB45DBD314B120
:10271400504625F0B1FFB9F1010F4FF00004039EBC
:1027240047460BD04FF00109CAE710F801CB1AF85D
:1027340002E08CEA0E0C0AF802C0D0E702980422E8
:102744000549FEF7ADFB22460421019B029805B022
:10275400BDE8F04FFFF756BFCC270020F7B5099F1F
:10276400BDF820400646CDE900471D46FFF782FF2D
:102774002CB13346012221462846FFF743FF0020AF
:1027840003B0F0BD2DE9F7431E4605468846914641
:10279400BDF828700D4C0346394630460122FFF738
:1027A40031FF33464A4641462846CDE90074FFF7D7
:1027B40061FF042221460B98FEF7D5FB002814BFC5
:1027C4007E20002003B0BDE8F08300BFC8270020AE
:1027D4002DE9F3410C4615461E468046084F9918CC
:1027E400214438460422FEF75BFBCDE900676319F8
:1027F4002A4621464046FFF7C5FF02B0BDE8F081F6
:10280400DC27002000207047002070477047704785
:10281400F7B50024094E0A4F0A4D56F8243003B97F
:102824003B6835F8142008490092012022460134FF
:102834000DF0F8FA292CF0D103B0F0BD301D0020C2
:10284400D81D0020C03B0020921E030008B5FFF7EE
:10285400DFFFBDE8084000F0F1B8000007B5002034
:10286400FDF7B2FFC2B2282A0DD8084B53F8223024
:102874000BB9074B1B680749012031F8121000916E
:1028840005490DF0CFFA03B05DF804FB301D0020BC
:10289400D81D0020C03B0020921E0300FFF7B8BFE4
:1028A4007047000038B50020FDF78EFF0446012074
:1028B400FDF78AFF0546054901200DF0B3FAA9B2D8
:1028C400E0B2BDE8384000F0D1B800BF9D1E03005F
:1028D400F7B50024094E0A4F0A4D56F8243003B9BF
:1028E4003B6835F81420084900920120224601343F
:1028F4000DF098FA292CF0D103B0F0BD301D002062
:10290400D81D00206E3B0020921E030073B502AB5D
:1029140003E906000446019D1CF032FE06462046EB
:102924001CF03CFE9DF800008EB1202C0FD82B78B3
:10293400012B37D84FF6FF75394903EB4313234472
:1029440031F81320AA4202D0013221F813204FF6A5
:10295400FF72344B344933F8146031F81450964202
:102964001CBF721C23F8142004F0FD02092A31D183
:102974009A8A898A02448A42B4BF9A82998233F835
:102984001430AB4204D3AE4202D22046FDF7F1FD2F
:102994000025264BEA5CA24228D00135112DF9D13D
:1029A40002B070BD022BD2D14FF6FF714FF6FF7506
:1029B4001B4B33F814208A421CBF013223F8142025
:1029C40004F1210233F81210A9421CBF013123F88B
:1029D4001210BCE71D2CD2D15A8F1118A942BDBFC9
:1029E40002F1FF3212185A875D87C8E719F05BF9C4
:1029F4000F4B04461B78834203D8DD210D4800F0B9
:102A04003DF84FF6FF710C4A04EB04142C4432F8E1
:102A140014308B42C4D0013322F81430C0E700BF15
:102A2400123C0020C03B00206E3B00200922030022
:102A3400111D0020852103004C3B0020522200215F
:102A44000148FEF789BA00BFC03B00205222FF2193
:102A54000148FEF781BA00BF6E3B002008B5FFF7BE
:102A6400EDFFBDE80840FFF7F1BF0000014B23F87C
:102A7400101070476E3B002042DE704738B50446A4
:102A84000D4600F0AFFD03F06CFD2946204610F022
:102A94000AFD2B4622460549012008F06DFF294610
:102AA4002046BDE83840FFF7E7BF00BF1A22030005
:102AB4006D4B2DE9F0415A686C4CA2655A6AE26587
:102AC4006B4AD2F800122166D2F8042262669A6A2E
:102AD400A266DA6AE2661A6B22675A6B6267A26BB5
:102AE400DB6B12F0040FA367D4E90F5318BF1D4624
:102AF40018F0CEFC002285420346606522655DD352
:102B04005C4A95425AD8AA696264E969A164B4F836
:102B14005810C1F30801062954D157498A4251D3A8
:102B240056498A424ED211884DF64262914249D1A9
:102B340040F201706268C4F89420A268C4F8982036
:102B44004F4A5049934238BF13460A468B423CD3FE
:102B5400D31AE3640023C4E91F33C4E92133C4E96D
:102B64002333484E444FDFF814C1AE4233D8D4E97E
:102B74001FC7D4E92165D4E923124FF0000E013BAD
:102B8400DBB2FF2B42D1BEF1000F05D0C4E91FC751
:102B9400C4E92165C4E92312B4F85830C3F3080327
:102BA400052B57D03CD8032B47D0042B58D040F6E4
:102BB4000722013B4B2B98BF104640E000221D46E4
:102BC400C4E911224FF42060BAE71E68B6F1CD3F84
:102BD400BED10433BAE756F8042DBA42C5D36245D0
:102BE400C3D2D107C1D5002104EB010EDEF87CE08D
:102BF4009645BAD004311829F6D10BB9052301E062
:102C0400013BDBB204EB8301CA67AEE7E0464FF059
:102C1400010EBC4637462E460D4611464246AEE7E7
:102C24000C2B1AD03B2B0CD0062BC0D140F604231E
:102C3400B0F5206F08BF184601E040F60120BDE85A
:102C4400F081114B9B6913F0020F40F2025318BF3D
:102C54001846F4E740F60320F1E740F60520EEE7D6
:102C640040F60220EBE700BF00ED00E0000000208A
:102C740000E100E0A01A00204C0300001012030041
:102C84009C000020C01A00200080014A042804D0BF
:102C940003280CBF01200220704700207047000069
:102CA4004FF480732DE9F04385B0ADF80C30002467
:102CB40001F066FC0127DFF84480DFF8449003ABA1
:102CC400E35C012218F8336008EBC3035D68304607
:102CD4000023294603F030FD4946E8B201F05EFCCA
:102CE400CDE9007701232A462946304603F0DEFC6D
:102CF40014B105B0BDE8F0830124E0E730220300FD
:102D0400892D000008B5FFF7C1FF022816BF024B4A
:102D14000020185C08BD00BFE027002008B5FFF7BD
:102D2400B5FF02281CBF014B195408BDE027002041
:102D340008B5FFF7ABFF022805D0034A135CB3FACA
:102D440083F35B09135408BDE027002008B5FFF79F
:102D54009DFF02280FD03021084A12F8303002EBD0
:102D6400C0025943064B50685B5823FA00F0C04335
:102D740000F0010008BD0020FCE700BF3022030082
:102D840014C0034070B504460026FFF7DFFF054674
:102D940001E000261D462046FFF7D8FFA84203465F
:102DA400F7D10136052EF2D12046FFF7ABFFA8423A
:102DB4000BD029462046FFF7B1FF2046FFF7A2FFBC
:102DC400014620460AF04CF870BD2046FFF7B0FFDC
:102DD4002046FFF797FF014620460AF041F82046B7
:102DE400FFF7A6FFE9E7000010B503F0D7FD04469E
:102DF40003F0CCFD0022012101FA02F3234014D098
:102E04001B4B33F812301B4A062B13D040F2072118
:102E14008B420DD1184919480C68844208D14CF2F0
:102E24003C334B800B88138012E00132102AE3D12B
:102E3400104AF8E74FF20F010F4B5888884214D11B
:102E44001988B1F5406F10D211804CF23C325A808F
:102E5400084B1A8840F201739A4201BF084B094A91
:102E6400D2E90001C3E9000110BD4FF4C061EBE7F2
:102E740040220300EC2700200000002007020FF08E
:102E8400E427002094000020014B1888000A7047B2
:102E9400EC270020014B1888704700BFEC27002066
:102EA4002DE9F04F4D4C0546A36BD4F850B05A07AA
:102EB40047BF0027B846D4F84CB0D4F85480D4F8AF
:102EC40040A05DBF464FD4F83CA0DFF83C91DFF84A
:102ED4003C9113F0080F434B434A18BF1A46B7EB13
:102EE40008061FBF6421730801FB0B33B3FBF6F321
:102EF40087B01CBF9BB205933C494B46CDE9017A90
:102F0400CDF8008008BF059601F08CF8B3B2CDE986
:102F140000931FFA8BF2059B3549284601F082F88D
:102F2400A36B5B070AD49C3E5E4507D1626D314BAF
:102F34009A4203D23049284601F074F8BA4501D8C0
:102F4400C24504D24A462D49284601F06BF828466A
:102F540008F00CFD236E0BB9636EBBB328492846F9
:102F640001F04BF800260127DFF8A480DFF8A490D5
:102F7400226E07FA06F3134207D058F82620137876
:102F84001BB14946284601F038F80136202EEFD10E
:102F940000260127DFF87880DFF87890626E07FA60
:102FA40006F3134209D008EB8603D3F88020137884
:102FB4001BB14946284601F020F801361D2EEDD1FB
:102FC400284607B0BDE8F04F01F026B828460D4961
:102FD40007B0BDE8F04F01F025B800BF00000020A5
:102FE400C01A0020472503005A1C03004E25030085
:102FF4007C2503009C000020B5250300E125030087
:10300400FF2503002E26030042250300095903006F
:1030140044260300707603002DE9F8430446FFF7C5
:1030240039FF40F60123984239D010D840F20253B8
:1030340098421DD040F20173984224D040F20153CB
:10304400984213D16549204600F0ECFF22E040F697
:10305400032398426CD03DD340F60423984200F0F9
:103064009C8040F60523984200F0B580BDE8F883C3
:103074005B49204600F0D6FF5A4B5B495A6C204608
:1030840000F0D0FF06E0574A5849D2E925232046EC
:1030940000F0C8FF2046BDE8F84308F067BC514D76
:1030A4005349204600F0BEFF95F86C309F0703D5C6
:1030B4005049204600F0B6FF95F86F305E0603D500
:1030C4004D49204600F0AEFF95F96F30002BE1DA50
:1030D4004A49B8E7434D4A49204600F0A3FF95F812
:1030E4006830980704D06A6C3F49204600F09AFF84
:1030F40095F96830002B04DA6A6F4249204600F0E3
:1031040091FF00260127DFF80881DFF81491AA6EE9
:1031140007FA06F3134207D058F8262013781BB198
:103124004946204600F07EFF0136082EEFD1B1E774
:103134002C4D3549204600F075FF2B496A6C20461A
:1031440000F070FF95F86930590703D52F492046E0
:1031540000F068FF95F96930002B04DA6A6F294999
:10316400204600F05FFF0826294FDFF8B480AB6EDD
:10317400F340DA0707D557F8262013781BB14146E8
:10318400204600F04FFF0136102EF0D195F868303C
:10319400002B7FF47FAF1F4955E7124D1E4920468F
:1031A40000F040FF6A6C1049204600F03BFF1026F7
:1031B400174FDFF86C80AB6EF340DB0707D557F889
:1031C400262013781BB14146204600F02BFF013620
:1031D4001A2EF0D15EE711494BE700BFD12203005C
:1031E4000E230300000000203E23030057230300A6
:1031F4007123030089230300C3230300F623030080
:1032040032240300572403007B2403009224030088
:1032140060220300D82403000825030021250300AD
:10322400732403002DE9F84F06460025154C164F6C
:10323400DFF85C80DFF85CA023785FFA85FB0BB9CC
:10324400BDE8F88F57F8043B22461049304600F099
:10325400D4FE227804F1010982B9627882B10BF0BC
:10326400030103290CBF41465146304600F0C5FE18
:10327400304608F07BFB01354C46DDE74C46E8E779
:103284004146F2E73827030004000020C822030067
:10329400E51203009455030000F00CB800F00AB8DE
:1032A40000F008B800F006B800F004B800F002B866
:1032B40000F000B872B61EF0080F09D01EF0040F1B
:1032C4000DD0DFF850E0AEE8FF1F6FF002000CE015
:1032D400DFF840E0AEE8FF1F6FF00E0005E0DFF816
:1032E40034E0AEE8FF1F6FF006006946EFF3098291
:1032F4008EE8070086460848084C854501D3A54555
:1033040001D384F30888FFF7D3FB84F3088818F00B
:103314009BF8000004000020A0110020C01A002027
:10332400FFF7C6BF704770477047704700F07E6371
:10333400B3F17E6F70B505460E46144616D105F0FE
:1033440017FE18B19A210D48FFF798FB2246314623
:10335400C5F30B0003F0DEFB044605F015FE5CB17B
:103364009D21BDE870400548FFF788BB520818F05E
:1033740009F808B18F21F4E770BD00BF5C2E03008B
:1033840037B57F2A14BF154600254BF234629142AB
:10339400044619D17F2241F2020168460823FFF74F
:1033A400EFFF082225496846FDF7DDFD30B9082303
:1033B4007F2241F2F0116846FFF7E2FF08226946D6
:1033C4002046FDF76DFD09E041F2F01291421AD159
:1033D4001B4901388A6CC96C1D1F0BB903B030BD81
:1033E400013B9D4200F8012F4FEA1222F5D1002241
:1033F40003349A42F2D00132042A04F8011F4FEA3E
:103404001121F6D1EAE701F47042B2F5805F07D1E9
:10341400C1F30B0404F17E649AB203FB0541D0E7C7
:1034240001F46042B2F5005FD8D1C1F30B04054941
:103434009AB2214403FB0511C3E700BFD62E030053
:103444000080E00F00E0070070B5054616461C46F4
:10345400DBB14BF23463994210D1082C28BF082405
:103464007F2241F202012346FFF78AFFA2B20749F5
:103474002846FDF778FD40B941F2F0112346324663
:103484002846BDE87040FFF77BBF70BDD62E030011
:103494002DE9F7430446E0070F46154603D5DD2121
:1034A4003448FFF7EBFAE90703D5DE213148FFF78B
:1034B400E5FA04F47043B3F5805F3ED1C4F30B0422
:1034C40004F17E646B1E2C4A23449342264603D99E
:1034D400E3212848FFF7D2FADFF8989006EB0508B5
:1034E40046453DD1A2070ED04FF6FF7337F8022BA5
:1034F40002A943EA0243A01E41F8043D0422FFF757
:1035040015FF0234023DAB070ED0023D25F0010346
:10351400FB5A02A96FEA03436FEA1343042241F8FA
:10352400043D6019FFF702FF25B12A4639462046BB
:10353400FFF7FCFE03B0BDE8F08304F46043B3F589
:10354400005F05D10D4BC4F30B041C442646C3E7AE
:10355400EA210848FFF792FA6FF00F060024BBE750
:1035640016F8013BFF2BBBD0F4214846FFF786FA3F
:10357400B6E700BF5C2E0300FF1FE00F00E007006A
:10358400FFF78ABE1FB5144A01AB1068516812894F
:1035940003C31A8001238DF804300D238DF80A30FB
:1035A40003230E4C082123208DF80B3002F030FE4B
:1035B40001A9204603F0E5FC4FF40061022342F226
:1035C4001800074AC2F884112350516041F21C02CA
:1035D400A35004B010BD00BFDE2E03000080014ADA
:1035E40000E100E0014803F0BBBC00BF0080014AD9
:1035F400A52803D10021024803F0A3BC704700BFF3
:103604000080014A024B586800F00100704700BF77
:103614000080014A024A536A002BFCD1704700BF64
:103624000080014A00207047002070477047000066
:1036340007B572B602F095FF894B8A495B6940224F
:103644008B6000230B764B768B76F023CB760B774F
:103654004B778B77CA77802281F8202081F821303C
:10366400E023602081F822307F4B81F8232083F807
:10367400002383F8012383F8022383F8032383F8C8
:10368400042383F8052383F8062383F8072383F8A8
:10369400082383F8092383F80A2383F80B2383F888
:1036A4000C2383F80D2383F80E2383F80F2383F868
:1036B400102383F8112383F8122383F8132383F848
:1036C400142383F8152383F8162383F8172383F828
:1036D400182383F8192383F81A2383F81B2383F808
:1036E4001C2383F81D2383F81E2383F81F2383F8E8
:1036F400202383F82103202083F8222383F8232323
:1037040083F8242383F8252383F8262383F82723A7
:1037140083F8282383F8292383F82A2383F82B03A7
:1037240083F82C0383F82D2383F82E2383F82F2387
:1037340083F8302383F8312383F8322383F8332347
:1037440083F8342383F8352383F8362383F8372327
:1037540083F8382383F8392383F83A2383F83B2307
:1037640083F83C23CB6823F4E0631B041B0C43F075
:10377400BF6343F40133CB604B6943F010034B61E7
:103784004FF4E0234B6204F03FFFFFF72DFBEFF310
:1037940008834FF0CD31354A043B93425DD2344A1D
:1037A400002192B23348FDF7D7FB62B6684603F0B6
:1037B400D9F9314B9B6DDB0318D4304A136823F4D9
:1037C400FF0323F4FE4343F4BC1343F4A0631360E8
:1037D40052F8043C23F4704343F4404342F8043C5D
:1037E40052F8043C43F4E06342F8043C9DF8013091
:1037F400012B0FD19DF8003063B94FF000531B68C3
:103804001F4B1B681F4B1B681F4B1B681F4B1B6800
:103814001F4B1B681F4AD2F8803043F00303C2F8E1
:10382400803002224FF040231A6704F063FE01F057
:10383400B3FA002300938DF80430012368468DF811
:10384400033002F02AFF00F0F5F817F04FFE12489B
:103854000FF02EFE03B05DF804FB1960043B9CE7F7
:103864005400000000ED00E000E100E060110020E1
:103874008C100000A000002000C0004034C00040B4
:10388400004000200080002000C000200000012033
:1038940000400120008000408484030040F2016065
:1038A40017F0D2BDFEF7B2BF08B500210B20FEF71A
:1038B400ABFFBDE80840FEF7AABF032000F046BAFC
:1038C40008B5FFF7E1FA044B0B289ABF00B203EBEB
:1038D4008000184608BD00BF2E30030008B5FFF76E
:1038E400D9FA044BC0F30F2253F82230C0B203EBD1
:1038F400800008BDF82F030007282DE9F84F04467F
:103904000F462DD0082808BF022421460120FCF7C9
:103914007BFEFFF777FE651ED5F1000848EB05082E
:1039240000B3012C1ED1A520FFF762FE2646EFF35B
:103934001089012383F31088EFF3118A4FF0000BF1
:103944008BF31188354D404608F07EFA631EC5F8A6
:1039540000B0042B59D8DFE803F00E4D4D5155004B
:103964000324D2E7FFF74EFE18B1FFF753FE0026FB
:10397400DDE70646DBE72A4A136923F004031361F3
:1039840030BF284AD2F82434D2F8202413409BB202
:10399400254A2B60D2F80011480102D5116849016B
:1039A40006D4D2F80011880105D51268910102D518
:1039B40043F480332B601C4BD3F80021520506D509
:1039C4001B685B0542BF2B6843F400332B601EB1B8
:1039D4000121164803F0B5FA404608F055FACFB174
:1039E4008AF3118889F310882146BDE8F84F002036
:1039F400FCF70ABE012002F023FEC2E7012002F018
:103A040033FEBEE702F032FEBBE788210848FFF729
:103A140035F8B6E787F31088E6E700BFF8270020FB
:103A240000ED00E000C0034000E100E00080014A36
:103A34005E30030042F22041044AD2F820341B0CC9
:103A44001B045350024A1360704700BF00C0034078
:103A5400F42700200021FFF74FBFFFF7FBBF000052
:103A64002DE9F04F89B00FF020FD0746002840F003
:103A7400DD806F4E6F4D3168286816F0CFFE044626
:103A8400002827D033683C46D3E900019A691268BC
:103A94009047336804A89B699B6898473368022061
:103AA4009B69DB689847326805985368E7B2B3FBB3
:103AB400F0F3BB42916904F1010442D8CB680020C1
:103AC400984733689B695B6898473168286816F0A3
:103AD400A5FE04460026DFF88891002C53D1564BEE
:103AE4004FEA8608F35C002B31D1A246534BF35CBA
:103AF4000193534B03EB080B019B5FFA8AF7BB421C
:103B0400286853D84F4BF35C002B3CD04C4B019F9F
:103B14009844FBB27E2B286835D8D8F8003003AA25
:103B240007EB030A514602AB17F0B2F848452AD016
:103B34005146286817F0F2F8013704460028E8D007
:103B440021E012680B6907FB00209847ABE73C4B68
:103B540003AA53F82670286802AB394617F098F880
:103B6400484507D078B9039B012B0CD03946286807
:103B740017F0D4F8344B394653F8083028681A68DB
:103B840016F0B0FF04460136312EA6D1B4FA84F300
:103B94002E4A5B0913702E4B9C4241D02DD8002C29
:103BA40032D0013B9C423FD0C5242DE0DBF80030ED
:103BB40003AA1F44394602AB17F06AF848450AD0F5
:103BC40010B10AF1010A97E7039B8BB9214B029AC2
:103BD400F35C9A42F5D01F4B1B4A9B5D52F80820B8
:103BE4003946286816F0F0FE0028EAD0044689E732
:103BF4003946286817F092F8EDE7174B9C4211D02C
:103C040004339C42D0D1C1242B681B7C23B14FF4D4
:103C140089711248FEF732FF204609B0BDE8F08FE3
:103C2400C324F1E7C424EFE7C224EDE7C624F3E795
:103C3400281E0020241E00205C19030066180300BF
:103C4400C01903008D19030098180300FC270020F5
:103C540002E000F0841A030004E000F0DA3003000C
:103C64000BE000F0302970B506460C4615461AD80C
:103C7400144A127822B3144A1068144A52F82110D4
:103C8400134A125D3AB1324616F07AFFC0B1BDE86C
:103C94007040FDF788B87F2D08BF002532462944BF
:103CA40016F0DCFEF2E7FF2903D9BDE87040FFF708
:103CB400CBBB40F24511BDE870400648FEF7DEBEBE
:103CC40070BD00BFFC270020241E0020C019030083
:103CD4005C190300DA3003003028F8B504460D46B9
:103CE400164619D81449097829B31449144F086899
:103CF400144951F824103C5D3CB1126816F0F2FEF0
:103D0400C8B1BDE8F840FDF74EB87F2D08BF0025C7
:103D1400294416F059FEF3E7FF2805D91A4631461F
:103D2400BDE8F840FFF7B4BB4FF4BC71BDE8F84000
:103D34000548FEF7A3BEF8BDFC270020241E002082
:103D44005C190300C0190300DA30030008B5084BFE
:103D54001B7863B1074B002253F82010064B1868F8
:103D640016F04EFF18B1BDE80840FDF71CB808BDB9
:103D7400FC270020C0190300241E002070B516463D
:103D840085180AB9304470BD01F00F030A2B34BF03
:103D940030243724013A2344090905F8013DD2B2FD
:103DA400EFE70000F0B5F9B100281CDA2D23B0F1DB
:103DB400004F137000D04042012115E0801B864261
:103DC400ECB205F10105F9D904B927B101274D1C5D
:103DD40030345454E9B20133092B09D130305054F2
:103DE4000131C8B2F0BD002100231F46DFF808C02E
:103DF4005CF823600025E2E7503103002DE9F04F21
:103E04004FF0000B95B002AC81468A4617461D461A
:103E14005E46A0463B7863B902ABE41AE4B222469C
:103E240019465046C847002840F093803444E0B215
:103E340090E0252B13D0BBF1000F14D12370013473
:103E440012AB9C426DD3A4EB0804E4B22246414673
:103E54005046C84700287CD12644F6B260E0BBF146
:103E6400000F00D101373B78632B00F092801BD800
:103E7400392B09D8302B80F09E80002BCCD0252BF9
:103E840051D04FF0000BDBE7582B00F08B80622BF6
:103E9400F7D14FF0000B2B6801936B680093009BE4
:103EA4009B4543D10835ECE7702B1ED017D8642B03
:103EB40001D06C2BE5D16C2B05F1040B28686CD177
:103EC4007B78752B14BF0121002101D0642B00D114
:103ED40001372246FFF766FF04445D46D1E7752BA0
:103EE400E9D0782B5ED0732BCBD1A4EB0804E4B2D9
:103EF400224602A9504605F1040B2D68C84740BB71
:103F04002644F6B2C4B22B5D0130002BFAD122460E
:103F140029465046C847E0B95D4683462644F6B272
:103F24004446013776E723700134AAE7019B204613
:103F340013F80B100222FFF721FF12AB984204463C
:103F44000ED3A0EB0804E4B2224641465046C847CB
:103F540018B1002015B0BDE8F08F26444446F6B2EF
:103F6400009B013B5B4582BF20232370013412ABCD
:103F74009C420BD3A4EB0804E4B2224641465046CB
:103F8400C8470028E5D126444446F6B20BF1010B9C
:103F940085E72B6804352370C6E7752B0CBF002119
:103FA400012196E7204602222978FFF7E7FE05F172
:103FB400040B044691E77A7802F0DF02582A19D1FB
:103FC400322B07F1010B09D10422204629882F1D29
:103FD400FFF7D4FE3D4604465F4652E7342B09D131
:103FE4002F1D2D680422290C2046FFF7C7FE04224A
:103FF400A9B2EDE74FF0010B22E70EB403B503AA13
:1040040052F8041B019207F0ABFFC0B202B05DF896
:1040140004EB03B0704700000149FFF7EEBF00BF97
:10402400E51203000EB433B505AA52F8041B054685
:10403400019207F095FF04462846FFF7EDFFE0B232
:1040440002B0BDE8304003B0704708B507F088FF00
:10405400C0B208BD2DE9F04F9B46584B85B01B7884
:10406400064689461546109F9DF844A0DDF8508009
:10407400002B00F09280072A00F291800E9B002B07
:1040840000F08D800F9B002B00F08980129BB3F50C
:10409400006F00F38480012801D1002F7FD0484BAA
:1040A40003EB05131B7B002B7BD0464C1022002115
:1040B40068462BF093FF04EB45141022B9F1000F6E
:1040C4005CD1494620462BF089FFA37843F01003C6
:1040D400A370E37843F03003E370BAF1000F03D127
:1040E400DBB243F00303E37036496A01129B885A3A
:1040F400013B63F30E100E9B01EB020C8852CCF8CB
:1041040008300F9B9DF84C10CCF804309CF8033019
:10411400012E61F38303CDF800B08CF8033042D153
:1041240013230CF1100ECCF80C309CE80F008EE831
:104134000F006FF00301DCF81C20B9F1010F61F3EB
:104144009F02CCF81C20CCF8147004D10F9BCCF83F
:104154000470CCF81830002719492A018B1841F84B
:104164000280159A28465A609F605E73224669460B
:1041740002F072FB384605B0BDE8F08F00212046FE
:104184002BF02CFF1023A3700323E370BAF1000F6C
:10419400AAD1DBB243F03003A5E70B48EBE70B48A9
:1041A400E9E70B48E7E7B8F1000FD4D19CF80230F7
:1041B40068F304138CF80230CDE700BF8029002097
:1041C4000028002080280020028000F0018000F0F8
:1041D400078000F038B5104B05461B78BBB1C0B161
:1041E40002F0C7F900230D4901EB0312147B3CB91B
:1041F4002B6001231460137302F0C1F9204638BD0B
:104204000133082BF0D102F0BAF90548F7E7054865
:10421400F5E70548F3E700BF8029002000280020C7
:10422400048000F0028000F0018000F038B502F054
:10423400A0F9002305460A4AD1180C7B5CB9103357
:10424400802BF9D102F0BAFA064B28461C7002F012
:1042540096F9204638BD284602F091F90248F9E75C
:104264000028002080290020058000F00D4B10B5A7
:104274001B78044693B1072812D802F07AF90A4B46
:1042840003EB04131A7B2AB100241C7302F077F9A0
:10429400204610BD02F073F90448FAE70448F8E731
:1042A4000448F6E78029002000280020068000F05A
:1042B400028000F0018000F0164B13B5186800234B
:1042C40001908DF8043002F054F9134B1C7824B19A
:1042D40002F055F9114802B010BD01221A7002F023
:1042E4004EF90F4B1C731C7783F82C4083F83C4029
:1042F40083F84C4083F85C4083F86C4083F87C403E
:1043040004230DEB03008DF8073002F07BFA2046FE
:10431400E1E700BF7431030080290020038000F02E
:104324000028002010B588B00E9C009207940D9CC4
:10433400024606949DF8304005940B9C04949DF825
:10434400284003940024CDE9013420460B4621463D
:10435400FFF780FE08B010BD10B588B00E9C009227
:1043640007940D9C024606949DF8304005940B9CDE
:1043740004949DF8284003940024CDE90134204698
:104384000B460121FFF766FE08B010BD08B50A4BC5
:104394001B785BB107280BD8084B03EB00131B7B7E
:1043A40043B1002102F01EFA002008BD0448FCE7D6
:1043B4000448FAE70448F8E7802900200028002090
:1043C400028000F0018000F0078000F008B50A4B7D
:1043D4001B785BB107280BD8084B03EB00131B7B3E
:1043E40043B1012102F0FEF9002008BD0448FCE7B6
:1043F4000448FAE70448F8E7802900200028002050
:10440400028000F0018000F0078000F008B50A4B3C
:104414001B7853B107280AD8084B03EB00131B7B06
:104424003BB102F069FA002008BD0548FCE70548E5
:10443400FAE70548F8E700BF80290020002800209B
:10444400028000F0018000F0078000F00D4B1B7823
:1044540093B1072812D889B10B4B03EB00131B7BD4
:1044640073B10A4BDA6A012303FA00F010401ABF51
:1044740000200B7008707047054870470548704766
:1044840005487047802900200028002000000440CF
:10449400028000F0018000F0078000F00B4B10B5A3
:1044A4001B780C4663B107280CD859B1084B03EBB1
:1044B40000131B7B43B102F031FA2060002010BDD1
:1044C4000448FCE70448FAE70448F8E78029002098
:1044D40000280020028000F0018000F0078000F036
:1044E4002DE9F843174B1F6D5B6D1F4000D5FEE7A8
:1044F40001260025144CDFF85480DFF8549037422D
:1045040017D02368C8F800609BB1A16862680131C4
:10451400A16028469847637B012B0AD148B909EB6F
:104524004513197B1A7F60F3410160F3410219734B
:104534001A770135082D4FEA460604F11004DED13E
:10454400BDE8F88300000440002800205020044007
:104554008028002070B504460125084E04B970BDBA
:1045640094FAA4F0B0FA80F005FA00F324EA030404
:1045740056F82030002BF1D09847EFE7842900202B
:104584004FF00072044BC3F880211A604FF0806230
:10459400C3F880211A60704700E100E038B5044692
:1045A4000D4601F0E6FF034B43F82450BDE83840C4
:1045B40001F0E5BF84290020084BD3F82404D3F884
:1045C4002024104042F2204220F42A5020F02A00F5
:1045D4004004400C9850FFF7BDBF00BF00C003402B
:1045E400084BD3F82404D3F82024104042F220428C
:1045F40020F4AA4020F055000004000C9850FFF766
:10460400A9BF00BF00C00340104A30B51368416120
:104614001546ABB91060836011E0091B9C684161C9
:104624001A467CB123465C698C42F6D9002CF4D03E
:1046340052B19060836013B15A69511A596130BD07
:104644000022F0E72346F4E72860F3E7D8290020A6
:1046540010B500F0B1FA094B094A196831B1136871
:10466400C41A4B69A34203D31B1B4B61106003E0C4
:10467400C01A002310604B6110BD00BFD829002070
:10468400C8290020074B10B51B6802205C69064B43
:104694001B681C4400F0C4FA2046BDE8104000F03A
:1046A40093BA00BFD8290020C829002070B59DF80E
:1046B4001450164605710025049A8560BDF81850FB
:1046C4000446C5800260C0E903360D4629B961611C
:1046D4000BB11146984796B1354601F04AFF06469C
:1046E400FFF7B6FF29462046FFF78EFF054B1B68F0
:1046F400A34201D1FFF7C6FF304601F040FF00207E
:1047040070BD00BFD829002000210C4A13687BB17A
:1047140083420AD1836879B18B6083681BB15A697B
:1047240041690A445A610020704719469B68EEE7C4
:104734000028EFD0022070471360EEE7D82900204C
:1047440070B501F016FF114D06462C78CCB9104B0C
:104754001C60104B1C60104B1C8000F0F3F901200E
:1047640000F05EFA00F0AAFA0C4B0246186040F220
:10477400E73123460A482BF055FA0A4B1860012307
:104784002B70304601F0FBFE002070BDC4290020D0
:10479400D8290020C8290020D0290020D4290020AD
:1047A40018FCFFFFCC2900202DE9F0410546F8B1A3
:1047B40001F0DFFE0F4F0646FFF74AFF2846D7F801
:1047C4000080FFF7A1FF044628B1304601F0D7FE70
:1047D4002046BDE8F081A8453B6803D123B1FFF72B
:1047E40051FFF2E7002BF0D1022000F025FAECE7AC
:1047F4002224EDE7D8290020F0B50D4685B01646F1
:104804001F46044680B1FFF7CFFFBDF82C300022CD
:1048140002939DF828302946CDE90073204633469B
:10482400FFF744FF05B0F0BD2220FBE738B50C4686
:10483400054698B191B100230B7001F09AFE012155
:10484400074B1B680BB122781AB101F098FE0020C7
:1048540038BD9D420CBF21709B68F3E72220F7E727
:10486400D8290020F0B51F46002387B00D46164610
:104874008DF817300446A0B10DF11701FFF7D6FFEC
:104884009DF817207AB9BDF83430294602939DF873
:1048940030302046CDE900733346FFF707FF07B0F9
:1048A400F0BD2220FBE70320F9E70000F8B50C4631
:1048B4000646C8B1C1B101F05CFE0546FFF7C8FE6B
:1048C40073692360134B1B68B3420FD023B9284686
:1048D40001F055FE03201CE0596922689B680A44D4
:1048E4002260F1E700230FE0222012E0276800F0A5
:1048F40063F9094E3368C01A8742F3D900F05CF9B2
:104904003368C01A23681B1A2846236001F037FE57
:104914000020F8BDD8290020C829002070B501F076
:1049240028FE064600F048F9094B05461C8801207C
:10493400A4B200F099F918B100F03EF9054601342B
:10494400304601F01CFE0022214642EA050070BDFB
:10495400D02900200A4B10B51B680C4683420CD3A7
:10496400084B4FF47A7219680023A0FB01012BF065
:1049740059F901302060002010BD2120FCE700BF60
:10498400CC290020D4290020104B10B51A684FF40C
:104994007A73A0FB0301A2B1531E134211D1B2FAE0
:1049A40082F2C2F11F02C2F12004A2F1200301FA33
:1049B40004F420FA02F2224321FA03F342EA030048
:1049C40010BD00232BF02EF9FAE700BFD4290020F4
:1049D40000000000F8B516461BA3D3E900238B4260
:1049E40008BF82422AD3174B1A684FF47A73A0FB8C
:1049F400034503FB0155C2B1531E13EA020014D14F
:104A0400B2FA82F2C2F11F02C2F12007A2F1200120
:104A140024FA02F305FA07F73B4325FA01F10B43A5
:104A240025FA02F2C6E90032F8BD002320462946E1
:104A34002BF0F8F8C6E900010020F5E72120F3E7A0
:104A4400AFF30080D4290020EFA7C64B378941007B
:104A5400C2072DE9F84F04460BD5374A13880133B2
:104A64009BB21380FFF7F4FD344B1B680BB1FFF7C7
:104A740009FEA3075DD500F09FF8314E074635685F
:104A84004FF0000A451B01F074FD8046DFF8AC903E
:104A9400D9F80040002C48D06369AB4209D95D1BAA
:104AA40065613760FFF7EEFD4046BDE8F84F01F061
:104AB40066BD23462A4637605969914209D8187958
:104AC40094F804C0521A844588BF1C469B68002B86
:104AD400F2D1404601F053FDD4F81480C4F814A078
:104AE40001F047FD83462046FFF70EFE584601F0CD
:104AF40046FD23694BB101F03CFD83462169204604
:104B0400FFF782FD584601F03AFDE36813B12168CE
:104B14002046984700F050F84744ED1B04460544EE
:104B240001F027FD27468046B2E7022000F084F812
:104B3400BAE7BDE8F88F00BFD0290020D8290020AB
:104B4400C82900201FB50024184B18689A880290C1
:104B540053F8060FADF80C201B79009002A88DF8CD
:104B640004308DF808408DF80C4001F061FF69466F
:104B740001208DF8004001F01FFF4FF090431F21EA
:104B84009A6922F01F029A61094A11609A6A12F026
:104B94000802FBD11A62012001F028FF4FF4806261
:104BA400044BC3F880211A6004B010BD78310300AF
:104BB4001420004800E100E04FF090439A6A120785
:104BC400FCD4186A704700004FF09042936A1907AA
:104BD400FCD4136A116C5269120704D4CA1A022A4B
:104BE40001D899420ED1C21A012A98BF981CB0F17B
:104BF400FF3F28BF01304FF0904318649A6942F098
:104C040008029A61054A13783BB14FF09041CB6B8F
:104C140043F00203CB63002313707047E01D0020B0
:104C240082074FF0904200F00103916948BF43F0BE
:104C340008030B4393617047830700F001020AD510
:104C44000121084B42F0080219704FF09041CB6BE0
:104C540023F00303CB634FF090418B6923EA0203F3
:104C64008B617047E01D00204FF0904301285B6981
:104C740004D0022805D1C3F3C000704703F001003B
:104C8400704700207047000010B501F072FC4FF02F
:104C9400904304465B691A07074A03F0010003F0D6
:104CA4000D0348BF40F002001360FFF7D1FE204619
:104CB400BDE8104001F063BC142000481B2001F043
:104CC40069B90000002211462D48F0B503682D4D46
:104CD40054592CB11E68AC18002E3DD12346012135
:104CE4000832282AF4D101B103600022144626496F
:104CF400264E0B6895592DB11F68B518002F32D177
:104D04002B4601240832282AF4D104B10B60006830
:104D14000368002B2FD04FF04022936F007923F0CB
:104D2400FF7323F4803343EA00439367184B4FF037
:104D3400004209681A600B68FBB14FF04022936F80
:104D4400097923F4FF7323F001030B439367104B9A
:104D54004FF080421A60F0BD1E792779B74284BFB4
:104D640023460121BCE71F7995F804C0BC453CBF2C
:104D74002B460124C6E7074BD9E7064BE8E700BFFB
:104D8400E0290020F0290020E4290020182A00202E
:104D9400685000406860004010B5012228240F4B81
:104DA40000211A700E4822462BF018F922460021E1
:104DB4000C482BF013F90C4B0C4A13600C4A13608B
:104DC4004FF040430B4A1360536020220A4BC3F850
:104DD40080211A60FFF776FF002010BDDC29002037
:104DE400F0290020182A0020E8290020E0290020CA
:104DF400E42900206460004000E100E04FF040221C
:104E0400D2F88800D2F88830C0F38800C3F388034E
:104E14009842F5D16FF48873184440B2704700008B
:104E24004FF04022936E526E10B5134013F080423F
:104E340011D0114B1B681C682CB1002119605960FA
:104E4400FFF7DCFFA0474FF080420C4B1A60BDE82F
:104E54001040FFF737BF002BF9DA094B1B681C68B9
:104E64002CB11A605A60FFF7C9FF0121A047034B18
:104E74004FF00042EAE700BFE429002064600040EC
:104E8400E0290020FFF7CCBF012203685A619A6928
:104E9400D207FCD541F2AC52042103795B0103F142
:104EA400804303F5703399507047000038B141B125
:104EB400013AB2F5006F044838BF00207047034838
:104EC40070470148704700BF037000F0027000F0A3
:104ED40038B504460D4601F04CFBA28892B222B9C3
:104EE4002A6001F04CFB064838BD1422638802FB9B
:104EF400034308332B6001F042FB0020F4E700BFBA
:104F04000B7000F038B504460D4601F032FBA3885F
:104F14009BB223B92B6001F032FB0C4838BD14223C
:104F24006388E18802FB034308332B6063885A1CBF
:104F340092FBF1F301FB13239BB26380A388013B33
:104F44009BB2A38001F01BFB0020E7E70B7000F08D
:104F540090F83130022B0BD13022437F90F821009E
:104F64005A43044B9B5823FA00F000F001007047A9
:104F74000020704714C00340002313B51C4A52F8A4
:104F8400234094F8211081420ED00133042BF6D132
:104F940002B010BD0028FBD19DF80730002BF7D0DC
:104FA400A068FFF7F3F9F3E794F83130022BEFD15F
:104FB4002046FFF7CDFF637E2076022BE8D194F8DC
:104FC4002E3003F0FF02002BE2D102A901F8012DDB
:104FD400A068FFF73BFA237E1BB194F82F30002B17
:104FE400D8D00023A06884F82F30FFF7EFF9CFE77B
:104FF400402A0020012230B590F8324087B080F872
:105004002C207CB9094D0368CDE9024504904C6815
:105014002433CDE900240A684169C068FFF79CF98C
:1050240007B030BD002380F82C30F9E7E5580000C4
:10503400012330B590F8324087B080F82D307CB928
:10504400094D0268CDE9024504904C683C32CDE933
:1050540000340B6801698068FFF764F907B030BD5C
:10506400002380F82D30F9E771500000F7B5906AFD
:1050740001A91446FFF72CFF144B984220D00025B9
:10508400019B1D619D6001F074FA019A0746D66880
:1050940026B1D2E9002329462046B04701A9A06AD7
:1050A400FFF730FFA06A83889BB263B101A9FFF7C1
:1050B4000FFF01992046FFF7BBFF384601F05FFA66
:1050C400012003B0F0BD84F82D30F6E70B7000F03A
:1050D400F8B5044617460D4601F04BFAA388E2885A
:1050E40006469A4205D800233B6001F048FA164868
:1050F400F8BD1422238805F1100C02FB0343083386
:105104002A4603CA624518605960154603F108032C
:10511400F6D11068142218602388E18802FB034347
:1051240008333B60238830465A1C92FBF1F301FBA1
:1051340013239BB22380A38801339BB2A38001F085
:105144001EFA0020D4E700BF0A7000F02DE9F341F5
:105154000D460446002800F0868001F00AFA012D6D
:10516400064637D1A36A9B889BB2002B39D0A0682E
:10517400FFF74CF90023A06A84F82D3083889BB292
:10518400002B34D1226893699B04FCD5023D012D88
:105194001BD8E068FFF73AF90023606A84F82C30E2
:1051A40083889BB2002B41D194F83130032B0CD06F
:1051B40042F2AC52042123795B0103F1804303F5ED
:1051C40070339950022223685A61304601F0D7F9AE
:1051D400002009E0022D48D1636A9B889BB2002B12
:1051E400D4D101F0CCF9264802B0BDE8F08101A980
:1051F400FFF76EFE0199A0680831FFF74FF9214FC0
:10520400019B1F61A06A83889BB2002BBAD001A9BD
:10521400FFF778FE019BD3F80C80B8F1000FF1D0B2
:105224009B68002239462046C047EBE76946FFF7F2
:105234004FFE0099E0680831FFF730F9114F009BE9
:105244001F61606A83889BB2002BADD06946FFF76B
:1052540059FE009BDD68002DF3D09B68002239467F
:105264002046A847EDE70848BEE7032D8ED1A36A80
:105274009B889BB2002B7FF47AAF636A73E700BF0D
:10528400087000F0097000F0027000F0036898697B
:105294007047436A9888C0B270472DE9F341984635
:1052A40000230546406A0E4684881746A4B2CDE919
:1052B40000333CB16946FFF70BFE01A90446E868D8
:1052C400FFF7ECF8009969B164B94868019BC01A0A
:1052D4003860C8F800300B6833602B68986902B0F6
:1052E400BDE8F0810021C8F8001039603160F4E7AE
:1052F400836A9888C0B270472DE9F3419846002329
:105304000546806A0E4684881746A4B2CDE9003368
:105314003CB16946FFF7DCFD01A90446A868FFF724
:10532400BDF8009969B164B94868019BC01A386036
:10533400C8F800300B6833602B68986902B0BDE888
:10534400F0810021C8F8001039603160F4E7007E74
:1053540070472DE9F04104460F469046FFF7A6FD3D
:105364000546002839D1152001F028F90646A26A1D
:1053740093889BB213B194F82E308BB323689E6943
:1053840016F002060ED104225A619A699207FCD5DE
:1053940041F2AC52102123795B0103F1804303F500
:1053A40070339950012384F8303094F8323033B993
:1053B400B8444745206818D183699B06FCD566B973
:1053C40042F2AC52102123795B0103F1804303F5CF
:1053D40070339950082223685A612846BDE8F08149
:1053E400002EC5D0FFF77CF8C1E717F8011B01F0C8
:1053F400A3FDDEE710B5044680B190F82E302BB93A
:10540400FFF7A6FD10B9A068FEF7C0FF002094F8CE
:105414002E300133DBB284F82E3010BD0048FCE797
:10542400027000F010B50446A0B190F82E309BB184
:1054340090F82E30012B05D1FFF78AFD10B9A06832
:10544400FEF7C4FF002094F82E30013BDBB284F851
:105454002E3010BD0148FCE70148FAE7027000F065
:10546400057000F037B590F831500446022D1ED176
:10547400012190F82220457E837F01FA02F2302038
:10548400154925B900FB031342F2100105E0012D73
:1054940007D100FB031341F210015A50002003B05E
:1054A40030BD247E00FB0313002CF4D1ECE7012D66
:1054B400F4D1037E73B911238DF80730FFF79AFFF7
:1054C4002A460DF107012046FFF743FF2046FFF768
:1054D400A9FFE3E71323EFE700C00340F0B5044658
:1054E4008BB09E4F03AE0D460FCF0FC697E8070053
:1054F40086E807001CB99A4C20460BB0F0BD0DB9E4
:10550400984CF9E73822002120462AF067FD964995
:10551400964A0B78002B40F0D3800120C2E9003377
:10552400C2E90233087042F823402B7D286884F8CE
:1055340031300023206084F832302B7B23718C4B74
:10554400984240F0CA80202384F82330894B236199
:105554004FF4802300266361D5E907236262168035
:105564005680968084F82C60A3621E805E809E80A4
:105574006B6803A90593EB8984F82D60ADF81C30A2
:105584002B8A84F82F60ADF81A30AB7C8DF80C6050
:105594008DF81830EB7C8DF81E3005238DF819300A
:1055A40001F04CFC14212A7B734B287A03EB42173D
:1055B400C7F8AC15A97A2E3240EA014C03EB42132A
:1055C400C3F804C06A7AEB7A42EA034CC7F8BCC554
:1055D400E17784F820306B7DE07622776377AB7DCA
:1055E400042284F82130EB7DA3772B7E84F82230CB
:1055F400012301F0A1F80123022294F82010207F56
:1056040001F09AF894F83130022B7DD1334601220F
:1056140094F82110607F01F08FF83346042294F847
:105624002210A07F01F088F8012394F82120607FE4
:105634001146CDE9003301F039F800F09AFF2E7DD0
:105644000746032E71D141F2AC5202212B7B042078
:105654005B0103F1804303F57033995041F25C021E
:1056640029688850297EEA7D42EA014241F2B85114
:105674005A50A97D6A7D42EA014241F2B4515A501E
:105684004FF0FF3242F248032868C2502B7D032BAF
:105694000CBF0521042101F08BFB4FF440622B6801
:1056A4005A61FEF709FE002104F10800FEF792FD9D
:1056B400014600284AD0314C384600F060FF1BE711
:1056C400002352F8231000293FF42DAF8C423FF4FD
:1056D4002AAF0133042BF4D10DE7294B984207D1AB
:1056E400212384F82330274B23614FF4A02331E78F
:1056F400254B98427FF404AF222384F82330234BB4
:1057040023614FF4C02325E7032B96D1334694F845
:105714002110607F012201F00FF83346042294F82F
:105724002210A07F01F008F887E7022EA8D194F890
:1057340021001749FEF732FFFEF722FF00236676A9
:10574400A37623762046FFF78DFE99E704F10C003B
:10575400FEF740FD04460028AED0ACE784310300D8
:10576400027000F0037000F0502A0020402A00204C
:10577400008005400200040000C003400E7000F0E9
:1057840000C00540020005000000064002000600BB
:105794007D4F000090F83130032B05D0022941766B
:1057A40018BF0176FFF75EBE00487047057000F031
:1057B40013B50446002862D00321FFF7C7FC00217B
:1057C4002046FFF7E7FF0023E17F1A46E07E00F062
:1057D400B3FF002394F820101A46207F00F0ACFF9A
:1057E40094F83130022B39D1002394F821101A4651
:1057F400607F00F0A1FF002394F822101A46A07FD6
:1058040000F09AFF0021012394F82120607FCDE964
:105814000031114600F04AFF94F8323013B90A22DD
:1058240023685A6194F83130032B04D0002194F892
:105834002100FEF7B3FEA068FEF718FDE068FEF74E
:1058440015FDFEF7F3FC0020636A188058809880E9
:10585400A36A18805880988002B010BD032BDBD156
:10586400002394F821101A46607F00F065FF00239E
:1058740094F822101A46A07F00F05EFFCCE701489E
:10588400EAE700BF027000F0F0B587B004461646A0
:10589400FFF70CFB0546E8B90493104BCDE901165C
:1058A4006A4601A9606A03960593FFF711FC054651
:1058B40080B994F82C306BB92046FFF7E5FA0099CB
:1058C400FFF798FB94F83130032B03D0257620465C
:1058D400FFF7C8FD284607B0F0BD00BF017000F017
:1058E40073B5506A01A91446FFF7F2FA2F4B984298
:1058F40030D094F83200019B002839D12268916C91
:1059040011F4007129D02A499860196142F24803C0
:105914004FF40071D15000F02CFE01990646CD6879
:1059240035B14A688B682046D31A0A680969A847C2
:1059340001A9606AFFF7E6FA606A8588ADB2DDB155
:1059440001A9FFF7C5FA01992046FFF753FB30463A
:1059540000F015FE012002B070BD906CC00507D5A3
:105964001448996018614FF4807142F24803D1E7FA
:1059740000221A619A60CEE7012320462376FFF7BE
:1059840071FD94F8313084F82C50032BDFD042F2AF
:10599400AC52042123795B0103F1804303F5703396
:1059A4009950022223685A61D1E700BF0B7000F0BE
:1059B4000D7000F00C7000F090F8312010B5012A41
:1059C400034610D102290ED0827E8A4201D10020E2
:1059D40010BD997611B9FFF725FDF8E70129F6D135
:1059E400FFF708FDF3E70148F2E700BF057000F098
:1059F400F0B587B004461646FFF758FA054600BBD3
:105A04000493114BCDE901166A4601A9A06A0396D5
:105A14000593FFF75DFB054698B994F82D3083B9DB
:105A240000F0A7FDA36A06469B889BB233B1009998
:105A34002046FFF7FDFA012384F83030304600F0A9
:105A44009EFD284607B0F0BD017000F010B5044675
:105A540000F08FFD124B13495A6A09688C422CBF1F
:105A64001219521892B2196B9A66102142F214025A
:105A740099509A690A439A6100F081FD0A4A0B49D8
:105A840013783BB100231370054A936923F0100384
:105A9400936110BD0B6923F004030B6130BFEFE782
:105AA40000800440582A00205C2A002000ED00E019
:105AB40070B588B00E22002104A82AF08FFA0123C1
:105AC4000D22002168468DF810302AF087FA02234F
:105AD400244C6A46002120468DF8063001F0CCF8AB
:105AE400236B4FF6FF73204EE36100233546ADF878
:105AF400123004A9204601F072F8062000F04AFA98
:105B0400BDF812300133B0FBF3F09BB2B3F5806FF4
:105B14003060ADF8123002D2144B9842E9D80E200E
:105B240000F038FA1249134CB1FBF0F12868002553
:105B3400E1FB0045104A0023204629462AF072F86A
:105B44000E4B084A186000200D4B1870936923F01F
:105B54001003936140220B4BC3F880211A6008B0F4
:105B640070BD00BF00800440542A002080841E00C1
:105B740000B0710B20A1070040420F00582A0020FA
:105B84005C2A002000E100E0F8B50025104B114C20
:105B94001968114AE0FB01450023204629462AF0F2
:105BA40041F84FF6E85604460D460027AF4208BFB9
:105BB400A64205D3A0B208B1FFF748FF0020F8BD04
:105BC4004FF6E850FFF742FFA41B65EB0705EDE72E
